:100000000C9434000C9451000C9451000C94510049
:100010000C9451000C9451000C9451000C9451001C
:100020000C9451000C9451000C9451000C9451000C
:100030000C9451000C946C000C9451000C945100E1
:100040000C9451000C9451000C9471010C949F017C
:100050000C9451000C9451000C9451000C945100DC
:100060000C9451000C94510011241FBECFEFD8E026
:10007000DEBFCDBF11E0A0E0B1E0EAE7F4E002C0EE
:1000800005900D92AE32B107D9F721E0AEE2B1E0B2
:1000900001C01D92A337B207E1F70E9453000C94F0
:1000A0003B020C9400000E941F0187E690E00E9432
:1000B000C901E1E8F0E080818B7F808380818360EB
:1000C0008083EFE6F0E0808181608083789481E036
:1000D00091E00E94F701FFCF1F920F920FB60F928F
:1000E00011241F932F933F934F935F936F937F93AD
:1000F0008F939F93AF93BF93EF93FF93CF93DF9330
:1001000000D0CDB7DEB780E390E39A8389838091F6
:100110000001823051F0833009F464C0813009F06D
:1001200075C082E08093000174C088EB0E942E01AC
:1001300080E00E944C010E946D0189EB0E942E011B
:100140000E9457014AE0BE016F5F7F4F90E00E941E
:100150000602CE0101960E94F7010E946201182F4B
:100160000E946D014AE0BE016F5F7F4F812F90E0DA
:100170000E9406028FE191E00E94F701CE010196F4
:100180000E94F7018CE291E00E94F70189EB0E9446
:100190002E010E9457014AE0BE016F5F7F4F90E041
:1001A0000E940602CE0101960E94F7010E946201A0
:1001B000182F0E946D014AE0BE016F5F7F4F812FB3
:1001C00090E00E9406028FE191E00E94F701CE01CB
:1001D00001960E94F70181E291E00E94F7010E94DE
:1001E0006D0117C040E1BE016F5F7F4F8CE590E06D
:1001F0000E940602CE0101960E94F7018CE291E076
:100200000E94F70181E08093000103C081E08093A8
:1002100000010F900F90DF91CF91FF91EF91BF916F
:10022000AF919F918F917F916F915F914F913F918E
:100230002F911F910F900FBE0F901F90189587B1AF
:100240008F7C87B988B1806388B9E9EBF0E0808161
:100250008C7F808388E98093B800089594EA909316
:10026000BC00ECEBF0E090819923ECF78093BB00AD
:1002700084E88093BC00ECEBF0E080818823ECF70D
:100280009091B900987F983129F081E0903419F469
:1002900080E0089580E008958093BB0084E8809317
:1002A000BC00ECEBF0E080818823ECF7089584EC4F
:1002B0008093BC00ECEBF0E080818823ECF7809128
:1002C000BB00089584E88093BC00ECEBF0E08081F3
:1002D0008823ECF78091BB00089584E98093BC00EB
:1002E00008951F920F920FB60F9211242F938F93A0
:1002F0009F93EF93FF938091C0002091C6008C7173
:10030000E0913001EF5FEF7190912F01E91739F023
:10031000E0933001F0E0ED5CFE4F208301C082E00D
:1003200090912E01892B80932E01FF91EF919F9147
:100330008F912F910F900FBE0F901F9018951F92C5
:100340000F920FB60F9211248F939F93EF93FF9309
:100350009091320180913101981769F0E09131015B
:10036000EF5FEF71E0933101F0E0ED5AFE4F8081D5
:100370008093C60005C0E1ECF0E080818F7D808332
:10038000FF91EF919F918F910F900FBE0F901F9053
:100390001895109232011092310110923001109292
:1003A0002F0199231CF422E02093C00090789093B1
:1003B000C5008093C40088E98093C10086E08093E3
:1003C000C2000895209132012F5F2F719091310169
:1003D0002917E1F3E22FF0E0ED5AFE4F80832093DE
:1003E0003201E1ECF0E08081806280830895CF9358
:1003F000DF93EC018881882331F021960E94E2018D
:1004000089918111FBCFDF91CF910895BB274A30AD
:1004100031F4992322F4BDE2909581959F4F0C947D
:100420001202BB27FB015527AA27880F991FAA1F75
:10043000A41710F0A41B83955051B9F7A05DAA33FF
:1004400008F0A95DA193009779F7B111B1931192CA
:10045000CB010C942B02DC01FC01672F71917723F7
:10046000E1F7329704C07C916D9370836291AE176F
:0A047000BF07C8F30895F894FFCF0A
:10047A00010D0A5363616E204932432D6275732060
:10048A00666F7220646576696365733A0D0A002E99
:0E049A000020202020202020202020202000D4
:00000001FF
