S00E00004763634C45442E7372656334
S11300000C9434000C943E000C943E000C943E007E
S11300100C943E000C943E000C943E000C943E0064
S11300200C943E000C943E000C943E000C943E0054
S11300300C943E000C943E000C943E000C943E0044
S11300400C943E000C943E000C943E000C943E0034
S11300500C943E000C943E000C943E000C943E0024
S11300600C943E000C943E0011241FBECFEFD8E048
S1130070DEBFCDBF0E9490000C94E6000C940000FB
S1130080FC01408121E030E002C0220F331F6A9559
S1130090E2F7242B20830895FC01808121E030E0E5
S11300A002C0220F331F6A95E2F7922F909589239D
S11300B080838181282B21830895FC01908121E094
S11300C030E002C0220F331F6A95E2F720952923FE
S11300D020830895FC01408121E030E002C0220F1A
S11300E0331F6A95E2F7242B20830895FC01908145
S11300F041E050E002C0440F551F6A95E2F761E009
S113010070E04F3F5F4F11F060E070E0292F30E066
S113011026233723232B11F48081089580E008954A
S113012065E084E290E00E94400065E085E290E0B2
S11301300E945D0064E084E290E00E94400064E07C
S113014085E290E00E945D0063E084E290E00E941A
S11301504C002FEF89E698E1215080409040E1F770
S113016000C000002BC064E085E290E00E946A00B9
S113017065E085E290E00E945D002FEF89E698E15A
S1130180215080409040E1F700C0000063E08BE222
S113019090E00E94760064E085E290E00E945D00B9
S11301A065E085E290E00E946A002FEF89E698E11D
S11301B0215080409040E1F700C0000063E085E2F8
S11301C090E00E947600882371F2C3CFF894FFCFA9
S9030000FC
