:100000000C9434000C943E000C943E000C943E0082
:100010000C943E000C943E000C943E000C943E0068
:100020000C943E000C943E000C943E000C943E0058
:100030000C943E000C943E000C943E000C943E0048
:100040000C943E000C943E000C943E000C943E0038
:100050000C943E000C943E000C943E000C943E0028
:100060000C943E000C943E0011241FBECFEFD8E04C
:10007000DEBFCDBF0E948E000C94E4000C94000003
:10008000FC01408121E030E002C0220F331F6A955D
:10009000E2F7242B20830895FC01808121E030E0E9
:1000A00002C0220F331F6A95E2F7922F90958923A1
:1000B00080838181282B21830895FC01908121E098
:1000C00030E002C0220F331F6A95E2F72095292302
:1000D00020830895FC01408121E030E002C0220F1E
:1000E000331F6A95E2F7242B20830895FC01808159
:1000F00041E050E002C0440F551F6A95E2F721E04D
:1001000030E04F3F5F4F11F020E030E090E02823D7
:10011000392381E0232B09F080E0089565E084E233
:1001200090E00E94400065E085E290E00E945D0062
:1001300064E084E290E00E94400064E085E290E0A8
:100140000E945D0063E084E290E00E944C002FEF8B
:1001500089E698E1215080409040E1F700C000001E
:100160002BC064E085E290E00E946A0065E085E2D1
:1001700090E00E945D002FEF89E698E121508040D9
:100180009040E1F700C0000063E08BE290E00E9445
:10019000760064E085E290E00E945D0065E085E223
:1001A00090E00E946A002FEF89E698E1215080409C
:1001B0009040E1F700C0000063E085E290E00E941B
:0C01C0007600882371F2C3CFF894FFCFC3
:00000001FF
